{
  "_format": "hh-sol-artifact-1",
  "contractName": "Feeless",
  "sourceName": "contracts/Feeless.sol",
  "abi": [
    {
      "inputs": [
        {
          "internalType": "address",
          "name": "_loanManager",
          "type": "address"
        }
      ],
      "stateMutability": "nonpayable",
      "type": "constructor"
    },
    {
      "anonymous": false,
      "inputs": [
        {
          "indexed": false,
          "internalType": "address",
          "name": "oldContract",
          "type": "address"
        },
        {
          "indexed": false,
          "internalType": "address",
          "name": "newContract",
          "type": "address"
        }
      ],
      "name": "ContractRetired",
      "type": "event"
    },
    {
      "anonymous": false,
      "inputs": [
        {
          "indexed": true,
          "internalType": "address",
          "name": "oldOwner",
          "type": "address"
        },
        {
          "indexed": true,
          "internalType": "address",
          "name": "newOwner",
          "type": "address"
        }
      ],
      "name": "OwnerChanged",
      "type": "event"
    },
    {
      "anonymous": false,
      "inputs": [
        {
          "indexed": true,
          "internalType": "address",
          "name": "who",
          "type": "address"
        },
        {
          "indexed": false,
          "internalType": "bool",
          "name": "isAuthorised",
          "type": "bool"
        }
      ],
      "name": "SourceAuthorisationChanged",
      "type": "event"
    },
    {
      "anonymous": false,
      "inputs": [
        {
          "indexed": true,
          "internalType": "address",
          "name": "who",
          "type": "address"
        },
        {
          "indexed": false,
          "internalType": "bool",
          "name": "isAuthorised",
          "type": "bool"
        }
      ],
      "name": "TargetAuthorisationChanged",
      "type": "event"
    },
    {
      "anonymous": false,
      "inputs": [
        {
          "indexed": false,
          "internalType": "uint256",
          "name": "oldVersion",
          "type": "uint256"
        },
        {
          "indexed": false,
          "internalType": "uint256",
          "name": "newVersion",
          "type": "uint256"
        }
      ],
      "name": "VersionChanged",
      "type": "event"
    },
    {
      "inputs": [],
      "name": "acceptOwnership",
      "outputs": [],
      "stateMutability": "nonpayable",
      "type": "function"
    },
    {
      "inputs": [
        {
          "internalType": "address",
          "name": "",
          "type": "address"
        }
      ],
      "name": "authorisedSources",
      "outputs": [
        {
          "internalType": "bool",
          "name": "",
          "type": "bool"
        }
      ],
      "stateMutability": "view",
      "type": "function"
    },
    {
      "inputs": [
        {
          "internalType": "address",
          "name": "",
          "type": "address"
        }
      ],
      "name": "authorisedTargets",
      "outputs": [
        {
          "internalType": "bool",
          "name": "",
          "type": "bool"
        }
      ],
      "stateMutability": "view",
      "type": "function"
    },
    {
      "inputs": [
        {
          "internalType": "bytes32",
          "name": "buffer",
          "type": "bytes32"
        }
      ],
      "name": "bytes32ToHexString",
      "outputs": [
        {
          "internalType": "string",
          "name": "",
          "type": "string"
        }
      ],
      "stateMutability": "pure",
      "type": "function"
    },
    {
      "inputs": [
        {
          "internalType": "address",
          "name": "who",
          "type": "address"
        }
      ],
      "name": "isAuthorisedSource",
      "outputs": [
        {
          "internalType": "bool",
          "name": "",
          "type": "bool"
        }
      ],
      "stateMutability": "view",
      "type": "function"
    },
    {
      "inputs": [
        {
          "internalType": "address",
          "name": "who",
          "type": "address"
        }
      ],
      "name": "isAuthorisedTarget",
      "outputs": [
        {
          "internalType": "bool",
          "name": "",
          "type": "bool"
        }
      ],
      "stateMutability": "view",
      "type": "function"
    },
    {
      "inputs": [],
      "name": "loanManager",
      "outputs": [
        {
          "internalType": "contract LoanManager",
          "name": "",
          "type": "address"
        }
      ],
      "stateMutability": "view",
      "type": "function"
    },
    {
      "inputs": [],
      "name": "newOwner",
      "outputs": [
        {
          "internalType": "address",
          "name": "",
          "type": "address"
        }
      ],
      "stateMutability": "view",
      "type": "function"
    },
    {
      "inputs": [],
      "name": "owner",
      "outputs": [
        {
          "internalType": "address",
          "name": "",
          "type": "address"
        }
      ],
      "stateMutability": "view",
      "type": "function"
    },
    {
      "inputs": [
        {
          "internalType": "address",
          "name": "newContract",
          "type": "address"
        }
      ],
      "name": "retire",
      "outputs": [],
      "stateMutability": "nonpayable",
      "type": "function"
    },
    {
      "inputs": [
        {
          "internalType": "address",
          "name": "sender",
          "type": "address"
        },
        {
          "internalType": "address",
          "name": "target",
          "type": "address"
        },
        {
          "internalType": "address",
          "name": "lender",
          "type": "address"
        },
        {
          "internalType": "uint256",
          "name": "quantity",
          "type": "uint256"
        },
        {
          "internalType": "uint256",
          "name": "premium",
          "type": "uint256"
        },
        {
          "internalType": "address",
          "name": "atsAddress",
          "type": "address"
        },
        {
          "internalType": "bytes",
          "name": "callInfo",
          "type": "bytes"
        },
        {
          "internalType": "bytes",
          "name": "sig",
          "type": "bytes"
        }
      ],
      "name": "sendFeelessLoan",
      "outputs": [],
      "stateMutability": "nonpayable",
      "type": "function"
    },
    {
      "inputs": [
        {
          "internalType": "address",
          "name": "sender",
          "type": "address"
        },
        {
          "internalType": "address",
          "name": "target",
          "type": "address"
        },
        {
          "internalType": "bytes",
          "name": "callInfo",
          "type": "bytes"
        },
        {
          "internalType": "bytes",
          "name": "sig",
          "type": "bytes"
        }
      ],
      "name": "sendFeelessTransaction",
      "outputs": [],
      "stateMutability": "nonpayable",
      "type": "function"
    },
    {
      "inputs": [
        {
          "internalType": "address",
          "name": "who",
          "type": "address"
        },
        {
          "internalType": "bool",
          "name": "isAuthorised",
          "type": "bool"
        }
      ],
      "name": "setAuthorisedSource",
      "outputs": [],
      "stateMutability": "nonpayable",
      "type": "function"
    },
    {
      "inputs": [
        {
          "internalType": "address",
          "name": "who",
          "type": "address"
        },
        {
          "internalType": "bool",
          "name": "isAuthorised",
          "type": "bool"
        }
      ],
      "name": "setAuthorisedTarget",
      "outputs": [],
      "stateMutability": "nonpayable",
      "type": "function"
    },
    {
      "inputs": [
        {
          "internalType": "address",
          "name": "newOwner_",
          "type": "address"
        }
      ],
      "name": "setOwner",
      "outputs": [],
      "stateMutability": "nonpayable",
      "type": "function"
    },
    {
      "inputs": [
        {
          "internalType": "uint256",
          "name": "newVersion",
          "type": "uint256"
        }
      ],
      "name": "setVersion",
      "outputs": [],
      "stateMutability": "nonpayable",
      "type": "function"
    },
    {
      "inputs": [
        {
          "internalType": "string",
          "name": "s",
          "type": "string"
        }
      ],
      "name": "stringToBytes",
      "outputs": [
        {
          "internalType": "bytes",
          "name": "",
          "type": "bytes"
        }
      ],
      "stateMutability": "pure",
      "type": "function"
    },
    {
      "inputs": [],
      "name": "version",
      "outputs": [
        {
          "internalType": "uint256",
          "name": "",
          "type": "uint256"
        }
      ],
      "stateMutability": "view",
      "type": "function"
    }
  ],
  "bytecode": "0x608060405234801561001057600080fd5b506040516114eb3803806114eb83398101604081905261002f916101dd565b600080546001600160a01b0319163390811782556002829055610053906001610084565b61005e336001610137565b50600580546001600160a01b0319166001600160a01b039290921691909117905561020d565b6000546001600160a01b031633146100d75760405162461bcd60e51b81526020600482015260116024820152702cb7ba9030b932903737ba1027bbb732b960791b60448201526064015b60405180910390fd5b6001600160a01b038216600081815260036020908152604091829020805460ff191685151590811790915591519182527f31d5b6e9dd5272ea18ef8319eecf761847509ce53e23438a9adad17c998df29891015b60405180910390a25050565b6000546001600160a01b031633146101855760405162461bcd60e51b81526020600482015260116024820152702cb7ba9030b932903737ba1027bbb732b960791b60448201526064016100ce565b6001600160a01b038216600081815260046020908152604091829020805460ff191685151590811790915591519182527fa508230427fe7369259fc195655e889542d85a06723c64ea67b8c7e0ec02799e910161012b565b6000602082840312156101ef57600080fd5b81516001600160a01b038116811461020657600080fd5b9392505050565b6112cf8061021c6000396000f3fe608060405234801561001057600080fd5b50600436106101165760003560e01c80638da5cb5b116100a2578063b3ccbcfe11610071578063b3ccbcfe14610273578063c68b378714610286578063d4ee1d90146102a6578063e106fb4b146102b9578063f5dd0593146102ca57600080fd5b80638da5cb5b146101e657806390f9045a146102115780639124f5f7146102345780639e6371ba1461026057600080fd5b806361208ab2116100e957806361208ab21461017257806379ba5097146101a55780637e1c624e146101ad578063826117d9146101c057806386bc6cce146101d357600080fd5b806313af40351461011b5780632b5659cf14610130578063408def1e1461014357806354fd4d5014610156575b600080fd5b61012e610129366004610d2d565b6102f6565b005b61012e61013e366004610dff565b61034b565b61012e610151366004610e89565b6105f0565b61015f60025481565b6040519081526020015b60405180910390f35b610195610180366004610d2d565b60046020526000908152604090205460ff1681565b6040519015158152602001610169565b61012e61065f565b61012e6101bb366004610ea2565b610727565b61012e6101ce366004610f61565b610821565b61012e6101e1366004610f61565b6108ab565b6000546101f9906001600160a01b031681565b6040516001600160a01b039091168152602001610169565b61019561021f366004610d2d565b60036020526000908152604090205460ff1681565b610195610242366004610d2d565b6001600160a01b031660009081526004602052604090205460ff1690565b61012e61026e366004610d2d565b61092d565b6005546101f9906001600160a01b031681565b610299610294366004610e89565b61099b565b6040516101699190610fed565b6001546101f9906001600160a01b031681565b6102996102c7366004611000565b90565b6101956102d8366004610d2d565b6001600160a01b031660009081526003602052604090205460ff1690565b6000546001600160a01b031633146103295760405162461bcd60e51b815260040161032090611051565b60405180910390fd5b600180546001600160a01b0319166001600160a01b0392909216919091179055565b3360009081526003602052604090205460ff1661037a5760405162461bcd60e51b81526004016103209061107c565b6001600160a01b03831660009081526004602052604090205460ff166103b25760405162461bcd60e51b8152600401610320906110c9565b600083836040516020016103c7929190611117565b60408051601f198184030181529190528051602082012090915060006103ec82610b4a565b905060006103fa8286610b9e565b9050876001600160a01b0316816001600160a01b03161461043d5760006104208461099b565b90508061042c81610cfe565b93506104388488610b9e565b925050505b876001600160a01b0316816001600160a01b0316146104b05760405162461bcd60e51b815260206004820152602960248201527f5369676e6564207472616e73616374696f6e2061757468656e7469636174696f60448201526837103330b4b632b21760b91b6064820152608401610320565b60006060886001600160a01b0316886040516104cc919061114f565b6000604051808303816000865af19150503d8060008114610509576040519150601f19603f3d011682016040523d82523d6000602084013e61050e565b606091505b5090925090508115156000036105e4576063810151600090811a908167ffffffffffffffff81111561054257610542610d4f565b6040519080825280601f01601f19166020018201604052801561056c576020820181803683370190505b509050606460005b8360ff168110156105c9578482015160001a8261059081611181565b9350508060f81b8483815181106105a9576105a961119a565b60200101906001600160f81b031916908160001a90535050600101610574565b508160405162461bcd60e51b81526004016103209190610fed565b50505050505050505050565b6000546001600160a01b0316331461061a5760405162461bcd60e51b815260040161032090611051565b600280549082905560408051828152602081018490527f660877b893e1a9944a1137e9d624a388d36f8e1d2248a5eb64703936f99a6f31910160405180910390a15050565b6001546001600160a01b031633146106c55760405162461bcd60e51b815260206004820152602360248201527f596f7520617265206e6f74207468652070726f706f736564206e6577206f776e60448201526232b91760e91b6064820152608401610320565b600080546001600160a01b03198116331782556001546040516001600160a01b0392831693919092169183917fb532073b38c83145e3e5135377a08bf9aab55bc0fd7c1179cd4fb995d2a5159c91a350600180546001600160a01b0319169055565b3360009081526003602052604090205460ff166107565760405162461bcd60e51b81526004016103209061107c565b6001600160a01b03871660009081526004602052604090205460ff1661078e5760405162461bcd60e51b8152600401610320906110c9565b600554604051634e72a74160e01b81526001600160a01b0388811660048301528a811660248301526044820188905260648201879052858116608483015290911690634e72a7419060a401600060405180830381600087803b1580156107f357600080fd5b505af1158015610807573d6000803e3d6000fd5b505050506108178888848461034b565b5050505050505050565b6000546001600160a01b0316331461084b5760405162461bcd60e51b815260040161032090611051565b6001600160a01b038216600081815260036020908152604091829020805460ff191685151590811790915591519182527f31d5b6e9dd5272ea18ef8319eecf761847509ce53e23438a9adad17c998df29891015b60405180910390a25050565b6000546001600160a01b031633146108d55760405162461bcd60e51b815260040161032090611051565b6001600160a01b038216600081815260046020908152604091829020805460ff191685151590811790915591519182527fa508230427fe7369259fc195655e889542d85a06723c64ea67b8c7e0ec02799e910161089f565b6000546001600160a01b031633146109575760405162461bcd60e51b815260040161032090611051565b604080513081526001600160a01b03831660208201527f93ea720042f5a99c1a6c09e2bb2d349e4abf9247b05492889c3807cae7cdfe7c910160405180910390a150565b606060006109ab602060026111b0565b60ff1667ffffffffffffffff8111156109c6576109c6610d4f565b6040519080825280601f01601f1916602001820160405280156109f0576020820181803683370190505b5060408051808201909152601081526f181899199a1a9b1b9c1cb0b131b232b360811b602082015290915060005b6020811015610b2057818251868360208110610a3c57610a3c61119a565b610a489291901a6111e9565b81518110610a5857610a5861119a565b01602001516001600160f81b03191683610a738360026111fd565b81518110610a8357610a8361119a565b60200101906001600160f81b031916908160001a905350818251868360208110610aaf57610aaf61119a565b610abb9291901a611214565b81518110610acb57610acb61119a565b01602001516001600160f81b03191683610ae68360026111fd565b610af1906001611228565b81518110610b0157610b0161119a565b60200101906001600160f81b031916908160001a905350600101610a1e565b5081604051602001610b32919061114f565b60405160208183030381529060405292505050919050565b6040517f19457468657265756d205369676e6564204d6573736167653a0a3332000000006020820152603c8101829052600090605c015b604051602081830303815290604052805190602001209050919050565b60008151604114610c0b5760405162461bcd60e51b815260206004820152603160248201527f496e76616c6964207369676e617475726520666f726d61742c206c656e6774686044820152701034b9903737ba101b1a90313cba32b99760791b6064820152608401610320565b60208201516040830151606084015160001a601b811015610c3457610c31601b8261123b565b90505b8060ff16601b1480610c4957508060ff16601c145b610c955760405162461bcd60e51b815260206004820152601a60248201527f496e76616c6964207369676e61747572652076657273696f6e2e0000000000006044820152606401610320565b60408051600081526020810180835288905260ff831691810191909152606081018490526080810183905260019060a0016020604051602081039080840390855afa158015610ce8573d6000803e3d6000fd5b5050506020604051035193505050505b92915050565b600081604051602001610b819190611254565b80356001600160a01b0381168114610d2857600080fd5b919050565b600060208284031215610d3f57600080fd5b610d4882610d11565b9392505050565b634e487b7160e01b600052604160045260246000fd5b60008067ffffffffffffffff841115610d8057610d80610d4f565b50604051601f19601f85018116603f0116810181811067ffffffffffffffff82111715610daf57610daf610d4f565b604052838152905080828401851015610dc757600080fd5b83836020830137600060208583010152509392505050565b600082601f830112610df057600080fd5b610d4883833560208501610d65565b60008060008060808587031215610e1557600080fd5b610e1e85610d11565b9350610e2c60208601610d11565b9250604085013567ffffffffffffffff811115610e4857600080fd5b610e5487828801610ddf565b925050606085013567ffffffffffffffff811115610e7157600080fd5b610e7d87828801610ddf565b91505092959194509250565b600060208284031215610e9b57600080fd5b5035919050565b600080600080600080600080610100898b031215610ebf57600080fd5b610ec889610d11565b9750610ed660208a01610d11565b9650610ee460408a01610d11565b95506060890135945060808901359350610f0060a08a01610d11565b925060c089013567ffffffffffffffff811115610f1c57600080fd5b610f288b828c01610ddf565b92505060e089013567ffffffffffffffff811115610f4557600080fd5b610f518b828c01610ddf565b9150509295985092959890939650565b60008060408385031215610f7457600080fd5b610f7d83610d11565b915060208301358015158114610f9257600080fd5b809150509250929050565b60005b83811015610fb8578181015183820152602001610fa0565b50506000910152565b60008151808452610fd9816020860160208601610f9d565b601f01601f19169290920160200192915050565b602081526000610d486020830184610fc1565b60006020828403121561101257600080fd5b813567ffffffffffffffff81111561102957600080fd5b8201601f8101841361103a57600080fd5b61104984823560208401610d65565b949350505050565b6020808252601190820152702cb7ba9030b932903737ba1027bbb732b960791b604082015260600190565b6020808252602d908201527f41646472657373206e6f7420617574686f726973656420746f2063616c6c207460408201526c3434b99031b7b73a3930b1ba1760991b606082015260800190565b6020808252602e908201527f4665656c6573733a20546865207461726765742061646472657373206973206e60408201526d37ba1030baba3437b934b9b2b21760911b606082015260800190565b6bffffffffffffffffffffffff198360601b16815260008251611141816014850160208701610f9d565b919091016014019392505050565b60008251611161818460208701610f9d565b9190910192915050565b634e487b7160e01b600052601160045260246000fd5b6000600182016111935761119361116b565b5060010190565b634e487b7160e01b600052603260045260246000fd5b60ff81811683821602908116908181146111cc576111cc61116b565b5092915050565b634e487b7160e01b600052601260045260246000fd5b6000826111f8576111f86111d3565b500490565b8082028115828204841417610cf857610cf861116b565b600082611223576112236111d3565b500690565b80820180821115610cf857610cf861116b565b60ff8181168382160190811115610cf857610cf861116b565b7f19457468657265756d205369676e6564204d6573736167653a0a36340000000081526000825161128c81601c850160208701610f9d565b91909101601c019291505056fea2646970667358221220e5b5c699ffe8d6482dddef6abc036769a5fd31c507ee0f7e2f3cdb3eff95f2fa64736f6c634300081e0033",
  "linkReferences": {},
  "deployedLinkReferences": {}
}