{
  "_format": "hh-sol-artifact-1",
  "contractName": "EventContract",
  "sourceName": "contracts/EventContract.sol",
  "abi": [
    {
      "inputs": [],
      "stateMutability": "nonpayable",
      "type": "constructor"
    },
    {
      "anonymous": false,
      "inputs": [
        {
          "indexed": true,
          "internalType": "uint256",
          "name": "offerId",
          "type": "uint256"
        },
        {
          "indexed": true,
          "internalType": "address",
          "name": "writer",
          "type": "address"
        },
        {
          "indexed": false,
          "internalType": "uint256",
          "name": "amount",
          "type": "uint256"
        }
      ],
      "name": "CollateralReleased",
      "type": "event"
    },
    {
      "anonymous": false,
      "inputs": [
        {
          "indexed": false,
          "internalType": "address",
          "name": "oldContract",
          "type": "address"
        },
        {
          "indexed": false,
          "internalType": "address",
          "name": "newContract",
          "type": "address"
        }
      ],
      "name": "ContractRetired",
      "type": "event"
    },
    {
      "anonymous": false,
      "inputs": [
        {
          "indexed": true,
          "internalType": "address",
          "name": "oldAddress",
          "type": "address"
        },
        {
          "indexed": true,
          "internalType": "address",
          "name": "newAddress",
          "type": "address"
        }
      ],
      "name": "DollarContractChanged",
      "type": "event"
    },
    {
      "anonymous": false,
      "inputs": [
        {
          "indexed": true,
          "internalType": "address",
          "name": "oldAddress",
          "type": "address"
        },
        {
          "indexed": true,
          "internalType": "address",
          "name": "newAddress",
          "type": "address"
        }
      ],
      "name": "EscrowAccountChanged",
      "type": "event"
    },
    {
      "anonymous": false,
      "inputs": [
        {
          "indexed": true,
          "internalType": "uint256",
          "name": "offerId",
          "type": "uint256"
        },
        {
          "indexed": false,
          "internalType": "bool",
          "name": "isExercisable",
          "type": "bool"
        }
      ],
      "name": "ExercisableChanged",
      "type": "event"
    },
    {
      "anonymous": false,
      "inputs": [
        {
          "indexed": true,
          "internalType": "address",
          "name": "oldAddress",
          "type": "address"
        },
        {
          "indexed": true,
          "internalType": "address",
          "name": "newAddress",
          "type": "address"
        }
      ],
      "name": "FeeAccountChanged",
      "type": "event"
    },
    {
      "anonymous": false,
      "inputs": [
        {
          "indexed": true,
          "internalType": "uint256",
          "name": "id",
          "type": "uint256"
        }
      ],
      "name": "OfferCancelled",
      "type": "event"
    },
    {
      "anonymous": false,
      "inputs": [
        {
          "indexed": true,
          "internalType": "uint256",
          "name": "id",
          "type": "uint256"
        },
        {
          "indexed": true,
          "internalType": "address",
          "name": "writer",
          "type": "address"
        },
        {
          "indexed": false,
          "internalType": "enum EventContract.Side",
          "name": "side",
          "type": "uint8"
        },
        {
          "indexed": false,
          "internalType": "bytes32",
          "name": "underlyingSymbol",
          "type": "bytes32"
        },
        {
          "indexed": false,
          "internalType": "uint256",
          "name": "strikePrice",
          "type": "uint256"
        },
        {
          "indexed": false,
          "internalType": "uint256",
          "name": "premium",
          "type": "uint256"
        },
        {
          "indexed": false,
          "internalType": "uint256",
          "name": "quantity",
          "type": "uint256"
        },
        {
          "indexed": false,
          "internalType": "uint256",
          "name": "collateral",
          "type": "uint256"
        },
        {
          "indexed": false,
          "internalType": "uint256",
          "name": "expiry",
          "type": "uint256"
        }
      ],
      "name": "OfferCreated",
      "type": "event"
    },
    {
      "anonymous": false,
      "inputs": [
        {
          "indexed": true,
          "internalType": "address",
          "name": "oldOwner",
          "type": "address"
        },
        {
          "indexed": true,
          "internalType": "address",
          "name": "newOwner",
          "type": "address"
        }
      ],
      "name": "OwnerChanged",
      "type": "event"
    },
    {
      "anonymous": false,
      "inputs": [
        {
          "indexed": true,
          "internalType": "uint256",
          "name": "positionId",
          "type": "uint256"
        },
        {
          "indexed": true,
          "internalType": "uint256",
          "name": "offerId",
          "type": "uint256"
        },
        {
          "indexed": true,
          "internalType": "address",
          "name": "holder",
          "type": "address"
        },
        {
          "indexed": false,
          "internalType": "uint256",
          "name": "quantity",
          "type": "uint256"
        },
        {
          "indexed": false,
          "internalType": "uint256",
          "name": "payment",
          "type": "uint256"
        }
      ],
      "name": "PositionCreated",
      "type": "event"
    },
    {
      "anonymous": false,
      "inputs": [
        {
          "indexed": true,
          "internalType": "uint256",
          "name": "positionId",
          "type": "uint256"
        },
        {
          "indexed": true,
          "internalType": "address",
          "name": "holder",
          "type": "address"
        },
        {
          "indexed": false,
          "internalType": "uint256",
          "name": "payout",
          "type": "uint256"
        }
      ],
      "name": "PositionExercised",
      "type": "event"
    },
    {
      "anonymous": false,
      "inputs": [
        {
          "indexed": true,
          "internalType": "uint256",
          "name": "positionId",
          "type": "uint256"
        },
        {
          "indexed": true,
          "internalType": "address",
          "name": "holder",
          "type": "address"
        },
        {
          "indexed": false,
          "internalType": "uint256",
          "name": "payout",
          "type": "uint256"
        }
      ],
      "name": "PositionSettled",
      "type": "event"
    },
    {
      "anonymous": false,
      "inputs": [
        {
          "indexed": true,
          "internalType": "uint256",
          "name": "positionId",
          "type": "uint256"
        },
        {
          "indexed": true,
          "internalType": "address",
          "name": "oldHolder",
          "type": "address"
        },
        {
          "indexed": true,
          "internalType": "address",
          "name": "newHolder",
          "type": "address"
        },
        {
          "indexed": false,
          "internalType": "uint256",
          "name": "salePrice",
          "type": "uint256"
        }
      ],
      "name": "PositionTransferred",
      "type": "event"
    },
    {
      "anonymous": false,
      "inputs": [
        {
          "indexed": true,
          "internalType": "address",
          "name": "who",
          "type": "address"
        },
        {
          "indexed": false,
          "internalType": "bool",
          "name": "isAuthorised",
          "type": "bool"
        }
      ],
      "name": "SourceAuthorisationChanged",
      "type": "event"
    },
    {
      "anonymous": false,
      "inputs": [
        {
          "indexed": true,
          "internalType": "address",
          "name": "who",
          "type": "address"
        },
        {
          "indexed": false,
          "internalType": "bool",
          "name": "isAuthorised",
          "type": "bool"
        }
      ],
      "name": "TargetAuthorisationChanged",
      "type": "event"
    },
    {
      "anonymous": false,
      "inputs": [
        {
          "indexed": false,
          "internalType": "uint256",
          "name": "oldVersion",
          "type": "uint256"
        },
        {
          "indexed": false,
          "internalType": "uint256",
          "name": "newVersion",
          "type": "uint256"
        }
      ],
      "name": "VersionChanged",
      "type": "event"
    },
    {
      "anonymous": false,
      "inputs": [
        {
          "indexed": true,
          "internalType": "uint256",
          "name": "offerId",
          "type": "uint256"
        },
        {
          "indexed": true,
          "internalType": "address",
          "name": "writer",
          "type": "address"
        },
        {
          "indexed": false,
          "internalType": "uint256",
          "name": "amount",
          "type": "uint256"
        }
      ],
      "name": "WriterFeeRefunded",
      "type": "event"
    },
    {
      "inputs": [],
      "name": "acceptOwnership",
      "outputs": [],
      "stateMutability": "nonpayable",
      "type": "function"
    },
    {
      "inputs": [
        {
          "internalType": "address",
          "name": "",
          "type": "address"
        }
      ],
      "name": "authorisedSources",
      "outputs": [
        {
          "internalType": "bool",
          "name": "",
          "type": "bool"
        }
      ],
      "stateMutability": "view",
      "type": "function"
    },
    {
      "inputs": [
        {
          "internalType": "address",
          "name": "",
          "type": "address"
        }
      ],
      "name": "authorisedTargets",
      "outputs": [
        {
          "internalType": "bool",
          "name": "",
          "type": "bool"
        }
      ],
      "stateMutability": "view",
      "type": "function"
    },
    {
      "inputs": [
        {
          "internalType": "uint256[]",
          "name": "positionIds",
          "type": "uint256[]"
        },
        {
          "internalType": "uint256[]",
          "name": "payouts",
          "type": "uint256[]"
        }
      ],
      "name": "batchSettle",
      "outputs": [],
      "stateMutability": "nonpayable",
      "type": "function"
    },
    {
      "inputs": [
        {
          "internalType": "uint256",
          "name": "offerId",
          "type": "uint256"
        },
        {
          "internalType": "uint256[]",
          "name": "positionIds",
          "type": "uint256[]"
        },
        {
          "internalType": "uint256[]",
          "name": "payouts",
          "type": "uint256[]"
        },
        {
          "internalType": "uint256",
          "name": "feeRefund",
          "type": "uint256"
        }
      ],
      "name": "batchSettleAndRelease",
      "outputs": [],
      "stateMutability": "nonpayable",
      "type": "function"
    },
    {
      "inputs": [
        {
          "internalType": "uint256",
          "name": "id",
          "type": "uint256"
        },
        {
          "internalType": "uint256",
          "name": "writerFee",
          "type": "uint256"
        }
      ],
      "name": "cancelOffer",
      "outputs": [],
      "stateMutability": "nonpayable",
      "type": "function"
    },
    {
      "inputs": [
        {
          "internalType": "uint256",
          "name": "id",
          "type": "uint256"
        },
        {
          "internalType": "address",
          "name": "writer",
          "type": "address"
        },
        {
          "internalType": "enum EventContract.Side",
          "name": "side",
          "type": "uint8"
        },
        {
          "internalType": "bytes32",
          "name": "underlyingSymbol",
          "type": "bytes32"
        },
        {
          "internalType": "uint256",
          "name": "strikePrice",
          "type": "uint256"
        },
        {
          "internalType": "uint256",
          "name": "premium",
          "type": "uint256"
        },
        {
          "internalType": "uint256",
          "name": "quantity",
          "type": "uint256"
        },
        {
          "internalType": "uint256",
          "name": "collateral",
          "type": "uint256"
        },
        {
          "internalType": "uint256",
          "name": "writerFee",
          "type": "uint256"
        },
        {
          "internalType": "uint256",
          "name": "expiry",
          "type": "uint256"
        }
      ],
      "name": "createOffer",
      "outputs": [],
      "stateMutability": "nonpayable",
      "type": "function"
    },
    {
      "inputs": [],
      "name": "dollarContract",
      "outputs": [
        {
          "internalType": "contract ATSDollar",
          "name": "",
          "type": "address"
        }
      ],
      "stateMutability": "view",
      "type": "function"
    },
    {
      "inputs": [],
      "name": "escrowAccount",
      "outputs": [
        {
          "internalType": "address",
          "name": "",
          "type": "address"
        }
      ],
      "stateMutability": "view",
      "type": "function"
    },
    {
      "inputs": [
        {
          "internalType": "uint256",
          "name": "",
          "type": "uint256"
        }
      ],
      "name": "exercisable",
      "outputs": [
        {
          "internalType": "bool",
          "name": "",
          "type": "bool"
        }
      ],
      "stateMutability": "view",
      "type": "function"
    },
    {
      "inputs": [
        {
          "internalType": "uint256",
          "name": "positionId",
          "type": "uint256"
        },
        {
          "internalType": "uint256",
          "name": "payout",
          "type": "uint256"
        }
      ],
      "name": "exercise",
      "outputs": [],
      "stateMutability": "nonpayable",
      "type": "function"
    },
    {
      "inputs": [],
      "name": "feeAccount",
      "outputs": [
        {
          "internalType": "address",
          "name": "",
          "type": "address"
        }
      ],
      "stateMutability": "view",
      "type": "function"
    },
    {
      "inputs": [
        {
          "internalType": "uint256",
          "name": "id",
          "type": "uint256"
        }
      ],
      "name": "getOffer",
      "outputs": [
        {
          "internalType": "address",
          "name": "writer",
          "type": "address"
        },
        {
          "internalType": "enum EventContract.Side",
          "name": "side",
          "type": "uint8"
        },
        {
          "internalType": "bytes32",
          "name": "underlyingSymbol",
          "type": "bytes32"
        },
        {
          "internalType": "uint256",
          "name": "strikePrice",
          "type": "uint256"
        },
        {
          "internalType": "uint256",
          "name": "premium",
          "type": "uint256"
        },
        {
          "internalType": "uint256",
          "name": "quantity",
          "type": "uint256"
        },
        {
          "internalType": "uint256",
          "name": "filledQuantity",
          "type": "uint256"
        },
        {
          "internalType": "uint256",
          "name": "collateral",
          "type": "uint256"
        },
        {
          "internalType": "uint256",
          "name": "expiry",
          "type": "uint256"
        },
        {
          "internalType": "enum EventContract.OfferStatus",
          "name": "status",
          "type": "uint8"
        }
      ],
      "stateMutability": "view",
      "type": "function"
    },
    {
      "inputs": [
        {
          "internalType": "uint256",
          "name": "offerId",
          "type": "uint256"
        }
      ],
      "name": "getOfferPositionCount",
      "outputs": [
        {
          "internalType": "uint256",
          "name": "",
          "type": "uint256"
        }
      ],
      "stateMutability": "view",
      "type": "function"
    },
    {
      "inputs": [
        {
          "internalType": "uint256",
          "name": "offerId",
          "type": "uint256"
        },
        {
          "internalType": "uint256",
          "name": "index",
          "type": "uint256"
        }
      ],
      "name": "getOfferPositionId",
      "outputs": [
        {
          "internalType": "uint256",
          "name": "",
          "type": "uint256"
        }
      ],
      "stateMutability": "view",
      "type": "function"
    },
    {
      "inputs": [
        {
          "internalType": "uint256",
          "name": "id",
          "type": "uint256"
        }
      ],
      "name": "getPosition",
      "outputs": [
        {
          "internalType": "uint256",
          "name": "offerId",
          "type": "uint256"
        },
        {
          "internalType": "address",
          "name": "holder",
          "type": "address"
        },
        {
          "internalType": "uint256",
          "name": "quantity",
          "type": "uint256"
        },
        {
          "internalType": "uint256",
          "name": "payment",
          "type": "uint256"
        },
        {
          "internalType": "enum EventContract.PositionStatus",
          "name": "status",
          "type": "uint8"
        }
      ],
      "stateMutability": "view",
      "type": "function"
    },
    {
      "inputs": [
        {
          "internalType": "address",
          "name": "who",
          "type": "address"
        }
      ],
      "name": "isAuthorisedSource",
      "outputs": [
        {
          "internalType": "bool",
          "name": "",
          "type": "bool"
        }
      ],
      "stateMutability": "view",
      "type": "function"
    },
    {
      "inputs": [
        {
          "internalType": "address",
          "name": "who",
          "type": "address"
        }
      ],
      "name": "isAuthorisedTarget",
      "outputs": [
        {
          "internalType": "bool",
          "name": "",
          "type": "bool"
        }
      ],
      "stateMutability": "view",
      "type": "function"
    },
    {
      "inputs": [],
      "name": "newOwner",
      "outputs": [
        {
          "internalType": "address",
          "name": "",
          "type": "address"
        }
      ],
      "stateMutability": "view",
      "type": "function"
    },
    {
      "inputs": [
        {
          "internalType": "uint256",
          "name": "",
          "type": "uint256"
        },
        {
          "internalType": "uint256",
          "name": "",
          "type": "uint256"
        }
      ],
      "name": "offerPositions",
      "outputs": [
        {
          "internalType": "uint256",
          "name": "",
          "type": "uint256"
        }
      ],
      "stateMutability": "view",
      "type": "function"
    },
    {
      "inputs": [
        {
          "internalType": "uint256",
          "name": "",
          "type": "uint256"
        }
      ],
      "name": "offerSettledCount",
      "outputs": [
        {
          "internalType": "uint256",
          "name": "",
          "type": "uint256"
        }
      ],
      "stateMutability": "view",
      "type": "function"
    },
    {
      "inputs": [
        {
          "internalType": "uint256",
          "name": "",
          "type": "uint256"
        }
      ],
      "name": "offerTotalPayouts",
      "outputs": [
        {
          "internalType": "uint256",
          "name": "",
          "type": "uint256"
        }
      ],
      "stateMutability": "view",
      "type": "function"
    },
    {
      "inputs": [
        {
          "internalType": "uint256",
          "name": "",
          "type": "uint256"
        }
      ],
      "name": "offers",
      "outputs": [
        {
          "internalType": "address",
          "name": "writer",
          "type": "address"
        },
        {
          "internalType": "enum EventContract.Side",
          "name": "side",
          "type": "uint8"
        },
        {
          "internalType": "bytes32",
          "name": "underlyingSymbol",
          "type": "bytes32"
        },
        {
          "internalType": "uint256",
          "name": "strikePrice",
          "type": "uint256"
        },
        {
          "internalType": "uint256",
          "name": "premium",
          "type": "uint256"
        },
        {
          "internalType": "uint256",
          "name": "quantity",
          "type": "uint256"
        },
        {
          "internalType": "uint256",
          "name": "filledQuantity",
          "type": "uint256"
        },
        {
          "internalType": "uint256",
          "name": "collateral",
          "type": "uint256"
        },
        {
          "internalType": "uint256",
          "name": "expiry",
          "type": "uint256"
        },
        {
          "internalType": "enum EventContract.OfferStatus",
          "name": "status",
          "type": "uint8"
        }
      ],
      "stateMutability": "view",
      "type": "function"
    },
    {
      "inputs": [],
      "name": "owner",
      "outputs": [
        {
          "internalType": "address",
          "name": "",
          "type": "address"
        }
      ],
      "stateMutability": "view",
      "type": "function"
    },
    {
      "inputs": [
        {
          "internalType": "uint256",
          "name": "",
          "type": "uint256"
        }
      ],
      "name": "positions",
      "outputs": [
        {
          "internalType": "uint256",
          "name": "offerId",
          "type": "uint256"
        },
        {
          "internalType": "address",
          "name": "holder",
          "type": "address"
        },
        {
          "internalType": "uint256",
          "name": "quantity",
          "type": "uint256"
        },
        {
          "internalType": "uint256",
          "name": "payment",
          "type": "uint256"
        },
        {
          "internalType": "enum EventContract.PositionStatus",
          "name": "status",
          "type": "uint8"
        }
      ],
      "stateMutability": "view",
      "type": "function"
    },
    {
      "inputs": [
        {
          "internalType": "uint256",
          "name": "positionId",
          "type": "uint256"
        },
        {
          "internalType": "uint256",
          "name": "offerId",
          "type": "uint256"
        },
        {
          "internalType": "address",
          "name": "holder",
          "type": "address"
        },
        {
          "internalType": "uint256",
          "name": "quantity",
          "type": "uint256"
        },
        {
          "internalType": "uint256",
          "name": "payment",
          "type": "uint256"
        },
        {
          "internalType": "uint256",
          "name": "buyerFee",
          "type": "uint256"
        }
      ],
      "name": "purchase",
      "outputs": [],
      "stateMutability": "nonpayable",
      "type": "function"
    },
    {
      "inputs": [
        {
          "internalType": "uint256",
          "name": "offerId",
          "type": "uint256"
        }
      ],
      "name": "releaseCollateral",
      "outputs": [],
      "stateMutability": "nonpayable",
      "type": "function"
    },
    {
      "inputs": [
        {
          "internalType": "address",
          "name": "newContract",
          "type": "address"
        }
      ],
      "name": "retire",
      "outputs": [],
      "stateMutability": "nonpayable",
      "type": "function"
    },
    {
      "inputs": [
        {
          "internalType": "address",
          "name": "who",
          "type": "address"
        },
        {
          "internalType": "bool",
          "name": "isAuthorised",
          "type": "bool"
        }
      ],
      "name": "setAuthorisedSource",
      "outputs": [],
      "stateMutability": "nonpayable",
      "type": "function"
    },
    {
      "inputs": [
        {
          "internalType": "address",
          "name": "who",
          "type": "address"
        },
        {
          "internalType": "bool",
          "name": "isAuthorised",
          "type": "bool"
        }
      ],
      "name": "setAuthorisedTarget",
      "outputs": [],
      "stateMutability": "nonpayable",
      "type": "function"
    },
    {
      "inputs": [
        {
          "internalType": "address",
          "name": "dollarContract_",
          "type": "address"
        }
      ],
      "name": "setDollarContract",
      "outputs": [],
      "stateMutability": "nonpayable",
      "type": "function"
    },
    {
      "inputs": [
        {
          "internalType": "address",
          "name": "escrowAccount_",
          "type": "address"
        }
      ],
      "name": "setEscrowAccount",
      "outputs": [],
      "stateMutability": "nonpayable",
      "type": "function"
    },
    {
      "inputs": [
        {
          "internalType": "uint256",
          "name": "offerId",
          "type": "uint256"
        },
        {
          "internalType": "bool",
          "name": "isExercisable",
          "type": "bool"
        }
      ],
      "name": "setExercisable",
      "outputs": [],
      "stateMutability": "nonpayable",
      "type": "function"
    },
    {
      "inputs": [
        {
          "internalType": "address",
          "name": "feeAccount_",
          "type": "address"
        }
      ],
      "name": "setFeeAccount",
      "outputs": [],
      "stateMutability": "nonpayable",
      "type": "function"
    },
    {
      "inputs": [
        {
          "internalType": "address",
          "name": "newOwner_",
          "type": "address"
        }
      ],
      "name": "setOwner",
      "outputs": [],
      "stateMutability": "nonpayable",
      "type": "function"
    },
    {
      "inputs": [
        {
          "internalType": "uint256",
          "name": "newVersion",
          "type": "uint256"
        }
      ],
      "name": "setVersion",
      "outputs": [],
      "stateMutability": "nonpayable",
      "type": "function"
    },
    {
      "inputs": [
        {
          "internalType": "uint256",
          "name": "positionId",
          "type": "uint256"
        },
        {
          "internalType": "uint256",
          "name": "payout",
          "type": "uint256"
        }
      ],
      "name": "settle",
      "outputs": [],
      "stateMutability": "nonpayable",
      "type": "function"
    },
    {
      "inputs": [
        {
          "internalType": "uint256",
          "name": "positionId",
          "type": "uint256"
        },
        {
          "internalType": "address",
          "name": "oldHolder",
          "type": "address"
        },
        {
          "internalType": "address",
          "name": "newHolder",
          "type": "address"
        },
        {
          "internalType": "uint256",
          "name": "salePrice",
          "type": "uint256"
        },
        {
          "internalType": "uint256",
          "name": "buyerFee",
          "type": "uint256"
        },
        {
          "internalType": "uint256",
          "name": "sellerProceeds",
          "type": "uint256"
        }
      ],
      "name": "transferPosition",
      "outputs": [],
      "stateMutability": "nonpayable",
      "type": "function"
    },
    {
      "inputs": [],
      "name": "version",
      "outputs": [
        {
          "internalType": "uint256",
          "name": "",
          "type": "uint256"
        }
      ],
      "stateMutability": "view",
      "type": "function"
    }
  ],
  "bytecode": "0x6080604052346100d857600080546001600160a01b0319163317815560025561002860016100dd565b3360005260036020526040600020600160ff19825416179055604051600181527f31d5b6e9dd5272ea18ef8319eecf761847509ce53e23438a9adad17c998df29860203392a261008360018060a01b036000541633146100dd565b3360005260046020526040600020600160ff19825416179055604051600181527fa508230427fe7369259fc195655e889542d85a06723c64ea67b8c7e0ec02799e60203392a2604051612cb5908161011e8239f35b600080fd5b156100e457565b60405162461bcd60e51b81526020600482015260116024820152702cb7ba9030b932903737ba1027bbb732b960791b6044820152606490fdfe608080604052600436101561001357600080fd5b60003560e01c90816305a81b1d146127745750806313af4035146127245780631cc9e785146124d857806339007b77146122b95780633ec7e6d414612294578063408def1e146122335780634579268a146118e05780634b023cf81461216d5780634ec5c0a5146120a757806354b3b0181461207e57806354fd4d5014612060578063556fdcb114611c1257806361208ab21461187857806365e17c9d14611be95780637341ab0f14611b2357806379ba509714611a5c578063826117d9146119d757806386bc6cce146119525780638a72ea6a146118e05780638da5cb5b146118b757806390f9045a146101cc5780639124f5f714611878578063913c8da4146118385780639915feef1461180757806399fbab88146102105780639a9c29f6146116555780639e6371ba146115ec578063a86265bb146113de578063ae70b30414610f84578063c1002bd514610945578063c590227414610919578063cd769365146105a3578063d0cb2e4b1461051e578063d17eb4bc146104f5578063d1f42230146104c9578063d45557cc14610291578063d4ee1d9014610268578063eb02c301146102105763f5dd0593146101cc57600080fd5b3461020b57602036600319011261020b576001600160a01b036101ed61279c565b166000526003602052602060ff604060002054166040519015158152f35b600080fd5b3461020b57602036600319011261020b5760043560005260096020526040600020805461026460018060a01b036001840154169260028101549060ff600460038301549201541691604051958695866128ca565b0390f35b3461020b57600036600319011261020b576001546040516001600160a01b039091168152602090f35b3461020b5761029f3661280f565b3360005260036020526102b960ff6040600020541661293f565b6000828152600860205260409020546102dc906001600160a01b031615156129f6565b81600052600860205260ff6008604060002001541660048110156104b3576103049015612b0b565b81600052600860205260056040600020015461046e576000828152600860208181526040808420928301805460ff19166003179055600554600754845460069095015492516323b872dd60e01b815295939486946001600160a01b039384169486949193859361037c93908116911660048501612aa4565b03925af1801561044557610451575b50806103ba575b507fc28b4aed030bfacc245c0501326e1beb8c0ef0d60e4edc21067fdeb52da2a7aa600080a2005b60055460065460008481526008602090815260408083205490516323b872dd60e01b815295919486946001600160a01b039182169486949093859361040793918116911660048501612aa4565b03925af180156104455715610392576104379060203d60201161043e575b61042f8183612a6a565b810190612a8c565b5081610392565b503d610425565b6040513d6000823e3d90fd5b6104699060203d60201161043e5761042f8183612a6a565b61038b565b60405162461bcd60e51b815260206004820152601b60248201527f4f66666572206861732061637469766520706f736974696f6e732e00000000006044820152606490fd5b634e487b7160e01b600052602160045260246000fd5b3461020b57602036600319011261020b57600435600052600c6020526020604060002054604051908152f35b3461020b57600036600319011261020b576005546040516001600160a01b039091168152602090f35b3461020b57604036600319011261020b576004357fc937d64e0125ab040aab524dc066c6a23bad6b4c89a20c4fb7829b6aa6ea8fcf602061055d61288d565b336000526003825261057660ff6040600020541661293f565b83600052600d82526105988160406000209060ff801983541691151516179055565b6040519015158152a2005b3461020b5760c036600319011261020b576004356105bf6127c8565b6105c76127b2565b916064356084359360a435943360005260036020526105ed60ff6040600020541661293f565b8360005260096020526106066040600020541515612b8c565b83600052600960205261062d60ff6004604060002001541661062781612825565b15612bd8565b6001600160a01b0382169586156108d4576000858152600960205260409020600101546001600160a01b0387811697911687900361089c57856000526009602052604060002054600052600860205260076040600020015442101561085f576020826106e092886000526009835260016040600020018b6001600160601b0360a01b82541617905560018060a01b03600554169060006040518096819582946323b872dd60e01b84528c60048501612aa4565b03925af1801561044557610842575b50816107cc575b610701915083612a5d565b9081610737575b505060207faa77c69bd248aea77c3d5b5294027d6f43068004fe9bd46129d77a1b6387605091604051908152a4005b6005546006546040516323b872dd60e01b8152949360209386936001600160a01b03908116938593600093859361077393169060048501612aa4565b03925af1908115610445577faa77c69bd248aea77c3d5b5294027d6f43068004fe9bd46129d77a1b63876050926020926107af575b5091610708565b6107c590833d851161043e5761042f8183612a6a565b50866107a8565b6005546006546040516323b872dd60e01b81529360209285926001600160a01b039182169284926000928492610809929091168b60048501612aa4565b03925af19182156104455761070192610823575b506106f6565b61083b9060203d60201161043e5761042f8183612a6a565b508761081d565b61085a9060203d60201161043e5761042f8183612a6a565b6106ef565b60405162461bcd60e51b815260206004820152601560248201527421b7b73a3930b1ba103430b99032bc3834b932b21760591b6044820152606490fd5b60405162461bcd60e51b815260206004820152601060248201526f2437b63232b91036b4b9b6b0ba31b41760811b6044820152606490fd5b60405162461bcd60e51b815260206004820152601a60248201527f4e657720686f6c6465722063616e6e6f74206265206e756c6c2e0000000000006044820152606490fd5b3461020b57602036600319011261020b57600435600052600a6020526020604060002054604051908152f35b3461020b57608036600319011261020b5760043560243567ffffffffffffffff811161020b576109799036906004016127de565b919060443567ffffffffffffffff811161020b5761099b9036906004016127de565b606492919235943360005260036020526109bc60ff6040600020541661293f565b6109c78282146129a1565b60005b818110610dbd5786863360005260036020526109ed60ff6040600020541661293f565b600081815260086020526040902054610a10906001600160a01b031615156129f6565b80600052600860205260ff6008604060002001541660048110156104b3576001148015610d7c575b15610d215780600052600a602052604060002080548015610cdc5782600052600b60205260406000205403610c97578160005260086020526008604060002001600260ff198254161790556000906000908054905b818310610c5d57505050610ab5610aca91836000526008602052600660406000200154612a3a565b82600052600c60205260406000205490612a5d565b80610bda575b816000526008602052817f757b323b5139c5e30fe0a1c4b13e38dece5aad9273138c1e3d1ed9191c6e73b2602060018060a01b036040600020541693604051908152a381610b1a57005b60055460065460008381526008602090815260408083205490516323b872dd60e01b815294919385936001600160a01b0393841693859391928492610b69928c92918116911660048501612aa4565b03925af1801561044557610bbd575b508060005260086020527f32f5376d3cc207fc034ff37864317494f22b11e4895c2fa6170ece22a585aa10602060018060a01b036040600020541693604051908152a3005b610bd59060203d60201161043e5761042f8183612a6a565b610b78565b60055460075460008481526008602090815260408083205490516323b872dd60e01b815294919385936001600160a01b0393841693859391928492610c29928b92918116911660048501612aa4565b03925af1801561044557610c3e575b50610ad0565b610c569060203d60201161043e5761042f8183612a6a565b5083610c38565b909192610c8e600191610c70868561289c565b90549060031b1c600052600960205260036040600020015490612a3a565b93019190610a8d565b60405162461bcd60e51b815260206004820152601e60248201527f4e6f7420616c6c20706f736974696f6e732061726520736574746c65642e00006044820152606490fd5b60405162461bcd60e51b815260206004820152601760248201527f4e6f20706f736974696f6e7320746f20736574746c652e0000000000000000006044820152606490fd5b60405162461bcd60e51b815260206004820152602d60248201527f4f66666572206973206e6f7420656c696769626c6520666f7220636f6c6c617460448201526c32b930b6103932b632b0b9b29760991b6064820152608490fd5b5080600052600860205260ff6008604060002001541660048110156104b357158015610a385750806000526008602052600760406000200154421015610a38565b610dc88183866129e6565b3590610dd58185886129e6565b35336000526003602052610df060ff6040600020541661293f565b826000526009602052610e096040600020541515612b8c565b826000526009602052610e2a60ff6004604060002001541661062781612825565b826000526009602052604060002054806000526008602052610e56600760406000200154421015612c24565b8360005260096020526004604060002001600160ff1982541617905580600052600b6020526040600020610e8a8154612c70565b9055600052600c6020526040600020610ea4828254612a3a565b905580610ef8575b8260019360005260096020527f98f9892eebebd6f31462317ad17c500a408bacffb142d51b60cc98ac62964d206020858060a01b0386604060002001541693604051908152a3016109ca565b60055460075460008581526009602090815260408083206001015490516323b872dd60e01b81529794919388936001600160a01b0393841693859391928492610f4b928b92918116911660048501612aa4565b03925af193841561044557600194610f66575b509250610eac565b610f7d9060203d811161043e5761042f8183612a6a565b508a610f5e565b3461020b5761014036600319011261020b57610f9e6127c8565b6002604435101561020b57336000526003602052610fc360ff6040600020541661293f565b610fd06004351515612ac6565b6004356000908152600860205260409020546001600160a01b03166113a1576001600160a01b038116156113635761100b60c4351515612b4c565b60e4351561132857426101243511156112ed5760405190610140820182811067ffffffffffffffff8211176112d7576040526001600160a01b0381168252611054604435612825565b60443560208301526064356040830152608435606083015260a435608083015260c43560a0830152600060c083015260e43560e083015261012435610100830152600061012083015260043560005260086020526101206008604060002060018060a01b0360018060a01b03865116166001600160601b0360a01b82541617815560208501516110e381612825565b6110ec81612825565b815460ff60a01b191660a091821b60ff60a01b1617825560408601516001830155606086015160028301556080860151600383015585015160048083019190915560c0860151600583015560e08601516006830155610100860151600783015592909401519301908310156104b35760009260ff801983541691161790558160206111a760018060a01b036005541660018060a01b03600754166040519485809481936323b872dd60e01b835260e435908a60048501612aa4565b03925af180156112af576112ba575b506101043561123c575b604051906111cf604435612825565b60443582526064356020830152608435604083015260a435606083015260c435608083015260e43560a08301526101243560c08301526001600160a01b031690600435907f6462085f5186897c8809cea12de899e175ada40dc2317f59c5f1e3344435389a9060e090a380f35b6005546006546040516323b872dd60e01b81529160209183916001600160a01b039081169183918891839161127b916101043591168a60048501612aa4565b03925af180156112af57611290575b506111c0565b6112a89060203d60201161043e5761042f8183612a6a565b508261128a565b6040513d85823e3d90fd5b6112d29060203d60201161043e5761042f8183612a6a565b6111b6565b634e487b7160e01b600052604160045260246000fd5b60405162461bcd60e51b815260206004820152601360248201527222bc3834b93c9034b7103a3432903830b9ba1760691b6044820152606490fd5b60405162461bcd60e51b815260206004820152601360248201527221b7b63630ba32b930b61034b9903d32b9379760691b6044820152606490fd5b60405162461bcd60e51b81526020600482015260166024820152752bb934ba32b91031b0b73737ba10313290373ab6361760511b6044820152606490fd5b60405162461bcd60e51b815260206004820152601560248201527427b33332b91030b63932b0b23c9032bc34b9ba399760591b6044820152606490fd5b3461020b576113ec3661280f565b9033600052600360205261140760ff6040600020541661293f565b8060005260096020526114206040600020541515612b8c565b80600052600960205261144160ff6004604060002001541661062781612825565b80600052600960205260406000205480600052600860205261146d600760406000200154421015612c24565b80600052600d60205260ff60406000205416156115a7578160005260096020526004604060002001600160ff1982541617905580600052600b60205260406000206114b88154612c70565b9055600052600c60205260406000206114d2838254612a3a565b905581611521575b8060005260096020527fd8c7e590c3ac27aa7586dcf7d4eb19bca4424888b5ff918bcdae810a9cb38bc5602060018060a01b036001604060002001541693604051908152a3005b60055460075460008381526009602090815260408083206001015490516323b872dd60e01b815294919385936001600160a01b0393841693859391928492611573928c92918116911660048501612aa4565b03925af1801561044557611588575b506114da565b6115a09060203d60201161043e5761042f8183612a6a565b5082611582565b60405162461bcd60e51b815260206004820152601c60248201527f436f6e7472616374206973206e6f74206578657263697361626c652e000000006044820152606490fd5b3461020b57602036600319011261020b577f93ea720042f5a99c1a6c09e2bb2d349e4abf9247b05492889c3807cae7cdfe7c604061162861279c565b61163d60018060a01b036000541633146128ff565b81513081526001600160a01b039091166020820152a1005b3461020b576116633661280f565b9033600052600360205261167e60ff6040600020541661293f565b8060005260096020526116976040600020541515612b8c565b8060005260096020526116b860ff6004604060002001541661062781612825565b8060005260096020526040600020548060005260086020526116e4600760406000200154421015612c24565b8160005260096020526004604060002001600160ff1982541617905580600052600b60205260406000206117188154612c70565b9055600052600c6020526040600020611732838254612a3a565b905581611781575b8060005260096020527f98f9892eebebd6f31462317ad17c500a408bacffb142d51b60cc98ac62964d20602060018060a01b036001604060002001541693604051908152a3005b60055460075460008381526009602090815260408083206001015490516323b872dd60e01b815294919385936001600160a01b03938416938593919284926117d3928c92918116911660048501612aa4565b03925af18015610445576117e8575b5061173a565b6118009060203d60201161043e5761042f8183612a6a565b50826117e2565b3461020b57602036600319011261020b57600435600052600d602052602060ff604060002054166040519015158152f35b3461020b576118463661280f565b90600052600a6020526040600020805482101561020b576020916118699161289c565b90549060031b1c604051908152f35b3461020b57602036600319011261020b576001600160a01b0361189961279c565b166000526004602052602060ff604060002054166040519015158152f35b3461020b57600036600319011261020b576000546040516001600160a01b039091168152602090f35b3461020b57602036600319011261020b576004356000526008602052604060002080546102646001830154926002810154906003810154600482015460058301549060068401549260ff600860078701549601541695604051998960ff8c9b60a01c169060018060a01b03168b61282f565b3461020b57604036600319011261020b5761196b61279c565b7fa508230427fe7369259fc195655e889542d85a06723c64ea67b8c7e0ec02799e602061199661288d565b926119ac60018060a01b036000541633146128ff565b6001600160a01b031660008181526004835260409020805460ff191660ff8615151617905592610598565b3461020b57604036600319011261020b576119f061279c565b7f31d5b6e9dd5272ea18ef8319eecf761847509ce53e23438a9adad17c998df2986020611a1b61288d565b92611a3160018060a01b036000541633146128ff565b6001600160a01b031660008181526003835260409020805460ff191660ff8615151617905592610598565b3461020b57600036600319011261020b576001546001600160a01b03811633819003611ad257600080546001600160a01b03198116331782556001600160a01b0316907fb532073b38c83145e3e5135377a08bf9aab55bc0fd7c1179cd4fb995d2a5159c9080a36001600160a01b031916600155005b60405162461bcd60e51b815260206004820152602360248201527f596f7520617265206e6f74207468652070726f706f736564206e6577206f776e60448201526232b91760e91b6064820152608490fd5b3461020b57602036600319011261020b57611b3c61279c565b611b5160018060a01b036000541633146128ff565b6001600160a01b03168015611ba457600780546001600160a01b0319811683179091556001600160a01b03167fba138d816c7df741bf93a9e419c8f720b9fdde99c69253b6a234c374e8ab21fd600080a3005b60405162461bcd60e51b815260206004820152601e60248201527f457363726f77206163636f756e742063616e6e6f74206265206e756c6c2e00006044820152606490fd5b3461020b57600036600319011261020b576006546040516001600160a01b039091168152602090f35b3461020b5760c036600319011261020b57600435602435611c316127b2565b9160643560843560a435336000526003602052611c5560ff6040600020541661293f565b611c60841515612ac6565b83600052600960205260406000205461201b57600085815260086020526040902054611c96906001600160a01b031615156129f6565b84600052600860205260ff6008604060002001541660048110156104b357611cbe9015612b0b565b6001600160a01b038616958615611fdd57611cda841515612b4c565b856000526008602052611cf584600560406000200154612a3a565b86600052600860205260046040600020015410611f98578560005260086020526005604060002001611d28858254612a3a565b90556000868152600860205260409020600581015460049091015414611f77575b60405160a0810181811067ffffffffffffffff8211176112d757604052868152600460208201918983526040810187815260608201908782526080830194600086528a600052600960205260406000209351845560018060a01b03905116600184019060018060a01b03166001600160601b0360a01b825416179055516002830155516003820155019051611ddd81612825565b611de681612825565b60ff8019835416911617905585600052600a60205260406000208054680100000000000000008110156112d757611e229160018201815561289c565b815460001960039290921b91821b19169087901b1790556005546007546040516323b872dd60e01b81529160209183916001600160a01b039081169183916000918391611e76918c91168a60048501612aa4565b03925af1801561044557611f5a575b5081611ec0575b50507ffff7d94c12f03a0431da83d5a28046f816fa18e8c6ae0b6e8805fec052d7ac9d9160409182519182526020820152a4005b6005546006546040516323b872dd60e01b8152959360209387936001600160a01b039081169385936000938593611efc93169060048501612aa4565b03925af1918215610445577ffff7d94c12f03a0431da83d5a28046f816fa18e8c6ae0b6e8805fec052d7ac9d93604093611f3b575b5091819350611e8c565b611f539060203d60201161043e5761042f8183612a6a565b5087611f31565b611f729060203d60201161043e5761042f8183612a6a565b611e85565b8560005260086020526008604060002001600160ff19825416179055611d49565b60405162461bcd60e51b815260206004820152601b60248201527f4578636565647320617661696c61626c65207175616e746974792e00000000006044820152606490fd5b60405162461bcd60e51b81526020600482015260166024820152752437b63232b91031b0b73737ba10313290373ab6361760511b6044820152606490fd5b60405162461bcd60e51b815260206004820152601860248201527f506f736974696f6e20616c7265616479206578697374732e00000000000000006044820152606490fd5b3461020b57600036600319011261020b576020600254604051908152f35b3461020b57600036600319011261020b576007546040516001600160a01b039091168152602090f35b3461020b57602036600319011261020b576120c061279c565b6120d560018060a01b036000541633146128ff565b6001600160a01b0316801561212857600580546001600160a01b0319811683179091556001600160a01b03167fa7777b5f7726d9b85152d1141e878b737a6916b11bb82a0eed8ba634c1838097600080a3005b60405162461bcd60e51b815260206004820152601f60248201527f446f6c6c617220636f6e74726163742063616e6e6f74206265206e756c6c2e006044820152606490fd5b3461020b57602036600319011261020b5761218661279c565b61219b60018060a01b036000541633146128ff565b6001600160a01b031680156121ee57600680546001600160a01b0319811683179091556001600160a01b03167f508dcd584678b460e90a73b67f0c71c3c9eb2506cc1100a01ec04f6a19fac648600080a3005b60405162461bcd60e51b815260206004820152601b60248201527f466565206163636f756e742063616e6e6f74206265206e756c6c2e00000000006044820152606490fd5b3461020b57602036600319011261020b577f660877b893e1a9944a1137e9d624a388d36f8e1d2248a5eb64703936f99a6f31604060043561227f60018060a01b036000541633146128ff565b600254908060025582519182526020820152a1005b3461020b5760206118696122a73661280f565b90600052600a8352604060002061289c565b3461020b57602036600319011261020b576004353360005260036020526122e760ff6040600020541661293f565b60008181526008602052604090205461230a906001600160a01b031615156129f6565b80600052600860205260ff6008604060002001541660048110156104b3576001148015612497575b15610d215780600052600a602052604060002080548015610cdc5782600052600b60205260406000205403610c97578160005260086020526008604060002001600260ff198254161790556000906000908054905b81831061247b57846123ad610ab586836000526008602052600660406000200154612a3a565b90816123f8575b8060005260086020527f757b323b5139c5e30fe0a1c4b13e38dece5aad9273138c1e3d1ed9191c6e73b2602060018060a01b036040600020541693604051908152a3005b60055460075460008381526008602090815260408083205490516323b872dd60e01b815294919385936001600160a01b0393841693859391928492612447928c92918116911660048501612aa4565b03925af180156104455761245c575b506123b4565b6124749060203d60201161043e5761042f8183612a6a565b5082612456565b90919261248e600191610c70868561289c565b93019190612387565b5080600052600860205260ff6008604060002001541660048110156104b3571580156123325750806000526008602052600760406000200154421015612332565b3461020b57604036600319011261020b5760043567ffffffffffffffff811161020b576125099036906004016127de565b60243567ffffffffffffffff811161020b576125299036906004016127de565b91909233600052600360205261254660ff6040600020541661293f565b6125518383146129a1565b60005b82811061255d57005b6125688184846129e6565b35906125758186886129e6565b3533600052600360205261259060ff6040600020541661293f565b8260005260096020526125a96040600020541515612b8c565b8260005260096020526125ca60ff6004604060002001541661062781612825565b8260005260096020526040600020548060005260086020526125f6600760406000200154421015612c24565b8360005260096020526004604060002001600160ff1982541617905580600052600b602052604060002061262a8154612c70565b9055600052600c6020526040600020612644828254612a3a565b905580612698575b8260019360005260096020527f98f9892eebebd6f31462317ad17c500a408bacffb142d51b60cc98ac62964d206020858060a01b0386604060002001541693604051908152a301612554565b60055460075460008581526009602090815260408083206001015490516323b872dd60e01b81529794919388936001600160a01b03938416938593919284926126eb928b92918116911660048501612aa4565b03925af193841561044557600194612706575b50925061264c565b61271d9060203d811161043e5761042f8183612a6a565b50886126fe565b3461020b57602036600319011261020b5761273d61279c565b61275260018060a01b036000541633146128ff565b600180546001600160a01b0319166001600160a01b0392909216919091179055005b3461020b57602036600319011261020b57602090600435600052600b82526040600020548152f35b600435906001600160a01b038216820361020b57565b604435906001600160a01b038216820361020b57565b602435906001600160a01b038216820361020b57565b9181601f8401121561020b5782359167ffffffffffffffff831161020b576020808501948460051b01011161020b57565b604090600319011261020b576004359060243590565b600211156104b357565b979593919a9998969492909a61014089019b60018060a01b0316895261285481612825565b602089015260408801526060870152608086015260a085015260c084015260e083015261010082015260048210156104b3576101200152565b60243590811515820361020b57565b80548210156128b45760005260206000200190600090565b634e487b7160e01b600052603260045260246000fd5b9192608093969594919660a0840197845260018060a01b03166020840152604083015260608201526128fb83612825565b0152565b1561290657565b60405162461bcd60e51b81526020600482015260116024820152702cb7ba9030b932903737ba1027bbb732b960791b6044820152606490fd5b1561294657565b60405162461bcd60e51b815260206004820152602d60248201527f41646472657373206e6f7420617574686f726973656420746f2063616c6c207460448201526c3434b99031b7b73a3930b1ba1760991b6064820152608490fd5b156129a857565b60405162461bcd60e51b815260206004820152601660248201527520b93930bc903632b733ba341036b4b9b6b0ba31b41760511b6044820152606490fd5b91908110156128b45760051b0190565b156129fd57565b60405162461bcd60e51b815260206004820152601560248201527427b33332b9103237b2b9903737ba1032bc34b9ba1760591b6044820152606490fd5b91908201809211612a4757565b634e487b7160e01b600052601160045260246000fd5b91908203918211612a4757565b90601f8019910116810190811067ffffffffffffffff8211176112d757604052565b9081602091031261020b5751801515810361020b5790565b6001600160a01b03918216815291166020820152604081019190915260600190565b15612acd57565b60405162461bcd60e51b81526020600482015260166024820152752a34329034b21031b0b73737ba103132903d32b9379760511b6044820152606490fd5b15612b1257565b60405162461bcd60e51b815260206004820152601260248201527127b33332b91034b9903737ba1037b832b71760711b6044820152606490fd5b15612b5357565b60405162461bcd60e51b815260206004820152601160248201527028bab0b73a34ba3c9034b9903d32b9379760791b6044820152606490fd5b15612b9357565b60405162461bcd60e51b815260206004820152601860248201527f506f736974696f6e20646f6573206e6f742065786973742e00000000000000006044820152606490fd5b15612bdf57565b60405162461bcd60e51b815260206004820152601760248201527f506f736974696f6e206973206e6f74206163746976652e0000000000000000006044820152606490fd5b15612c2b57565b60405162461bcd60e51b815260206004820152601960248201527f436f6e747261637420686173206e6f7420657870697265642e000000000000006044820152606490fd5b6000198114612a47576001019056fea264697066735822122055ca3e3b0991264b0ad2c1cadb1752e39d08d74e3b345ba8cc5f2579087a3f4264736f6c634300081e0033",
  "linkReferences": {},
  "deployedLinkReferences": {}
}